:020000040800F2
:10000000004002202DBB00087DBB00087DBB00081E
:1000100000000000000000000000000000000000E0
:100020000000000000000000000000007DBB000890
:1000300000000000000000007DBB00087195000872
:100040007DBB00087DBB00087DBB00087DBB0008B0
:100050007DBB00088195000819960008A19600084C
:100060008D9800087DBB00087DBB00087DBB0008A3
:100070007DBB0008759400088D940008A5940008C5
:10008000BD940008E1940008F99400081195000857
:100090002995000841950008599500087DBB000886
:1000A0007DBB00087DBB00087DBB00087D97000874
:0C00B0009D970008CD9700087DBB00085C
:1000BC00084B1A7F98791A714240D87919784240C6
:1000CC00187A59714240514000225972024B1A70F1
:1000DC007047C046F00200200000002010B5124B03
:1000EC003D2817D93F22114C104080002258920015
:1000FC00D3585A1C0DD01A06120F052A0DD90022FE
:10010C000A4C0F2003409B00E418A36D002909D072
:10011C00936110BD8000C358EBE7044C9200A21809
:10012C00126CEEE79362F4E730CB00087CC0000859
:10013C0030B5144B587F1C7A01004A1E91415A79F4
:10014C00CDB262409C796240DC796240FD24624011
:10015C001C788C4202D01D70002806D10A49FD2063
:10016C0018715A7200230B7030BD34210020585482
:10017C0080200649800188620349D86B4C68001BBB
:10018C009863ECE7F002002000000020000400500F
:10019C000C4A10B5136C117F180A90711802000EDE
:1001AC00D0711804000E53711C0E58401B021171B3
:1001BC001B0E4140594014724C4054720022024BA9
:1001CC001A7010BDF0020020000000200F4B180028
:1001DC009A7F597F12020A43D97F1D3009041143BB
:1001EC00C27812060A431A645A64FD22197A1A71EB
:1001FC005A794A4099794A40D9794A40032149426F
:10020C004A405A720022024B1A707047F0020020CA
:10021C00000000200C4A10B5536C117F180A907125
:10022C001802000ED0711804000E53711C0E5840A9
:10023C001B0211711B0E4140594014724C405472F8
:10024C000022024B1A7010BDF002002000000020AA
:10025C000F4B18009A7F597F12020A43D97F1D3029
:10026C0009041143C27812060A435A64FD22197A12
:10027C001A715A794A4099794A40D9794A400321EE
:10028C0049424A405A720022024B1A707047C046CB
:10029C00F00200200000002030B50C4D0C496B68BA
:1002AC000A7F180A88711802000EC8711804000E13
:1002BC001C0E58404B711B020A711B0E42405A40D7
:1002CC0000230C7254402B704C7230BD0000002087
:1002DC00F00200200F4B10B51C009A7F597F1202C0
:1002EC000A43D97F1D3409041143E2780A481206E7
:1002FC000A434260FD22197A1A715A794A40997957
:10030C004A40D9794A40032149424A405A72002353
:10031C00037010BDF002002000000020084A0949BB
:10032C00107F0B7A10715371434090794340D07910
:10033C004340107A4340537200230B707047C04601
:10034C00F002002000000020094B0A495A7F0A7273
:10035C00FD22187A1A715A79424098794240D8791C
:10036C0042400320404242405A7200230B707047B7
:10037C00F0020020000000204822084B995C98797C
:10038C001A7F59711A714240D8794240187A42400A
:10039C00514000225972024B1A707047F002002033
:1003AC0000000020114B5A7F1000411E884148214B
:1003BC005854002A14D080210D4A49019161FD2224
:1003CC00197A1A715A794A4099794A40D9794A402E
:1003DC00032149424A405A720022064B1A70704758
:1003EC008021034A49019162E9E7C046F0020020EE
:1003FC000004005000000020012310B50848094AF1
:10040C00417A94795940137F517113716340D479B7
:10041C006340147A6340594000235172037010BD3D
:10042C0000000020F002002010B5114B82B05A7F62
:10043C001048514251414172002A14D180210E4A78
:10044C00C9019161FD22197A1A715A794A40997938
:10045C004A40D9794A40032149424A405A72002302
:10046C00037002B010BD8021034AC9019162E9E713
:10047C00F002002000000020000400504922084B2C
:10048C00995C98791A7F59711A714240D879424017
:10049C00187A4240514000225972024B1A70704730
:1004AC00F00200200000002070B5154B587F5C79DD
:1004BC0001004A1E91411A7ACEB262409C79624088
:1004CC00DC796240FD246240B43C1D5D8D4202D05B
:1004DC001E55002806D10B49FD2018715A720023B5
:1004EC000B7070BD4A210020585480200649C00072
:1004FC0088620449D86BCC68001BD864ECE7C04612
:10050C00F002002000000020000400500C4A10B53E
:10051C00136D117F180A90711802000ED071180417
:10052C00000E53711C0E58401B0211711B0E4140E2
:10053C00594014724C4054720022024B1A7010BD78
:10054C00F0020020000000200F4B18009A7F597F0A
:10055C0012020A43D97F1D3009041143C2781206D6
:10056C000A431A655A65FD22197A1A715A794A405A
:10057C0099794A40D9794A40032149424A405A72F2
:10058C000022024B1A707047F0020020000000207D
:10059C000C4A10B5536D117F180A90711802000E99
:1005AC00D0711804000E53711C0E58401B021171AF
:1005BC001B0E4140594014724C4054720022024BA5
:1005CC001A7010BDF0020020000000200F4B180024
:1005DC009A7F597F12020A43D97F1D3009041143B7
:1005EC00C27812060A435A65FD22197A1A715A7991
:1005FC004A4099794A40D9794A40032149424A40B4
:10060C005A720022024B1A707047C046F00200204A
:10061C000000002030B50C4D0C49EB680A7F180A1D
:10062C0088711802000EC8711804000E1C0E584078
:10063C004B711B020A711B0E42405A4000230C7274
:10064C0054402B704C7230BD00000020F002002092
:10065C000F4B10B51C009A7F597F12020A43D97FA9
:10066C001D3409041143E2780A4812060A43C26099
:10067C00FD22197A1A715A794A4099794A40D979E6
:10068C004A40032149424A405A720023037010BD6C
:10069C00F002002000000020084A0949107F0B7C62
:1006AC0010715371434090794340D0794340107A94
:1006BC004340537200230B707047C046F002002079
:1006CC0000000020094B0A495A7F0A74FD22187A4F
:1006DC001A715A79424098794240D87942400320A5
:1006EC00404242405A7200230B707047F0020020C7
:1006FC00000000205822084B995C98791A7F597198
:10070C001A714240D8794240187A42405140002236
:10071C005972024B1A707047F00200200000002042
:10072C00104B5A7F1000411E884158215854002A02
:10073C0013D00D4A54399161FD22197A1A715A79E4
:10074C004A4099794A40D9794A40032149424A4062
:10075C005A720022054B1A7070470421024A9162AA
:10076C00EAE7C046F0020020000400500000002020
:10077C00012310B50848094A417C94795940137FEC
:10078C00517113716340D4796340147A63405940BA
:10079C0000235172037010BD00000020F0020020F5
:1007AC0010B5114B82B05A7F1048514251414174DF
:1007BC00002A14D180210E4A09019161FD22197A77
:1007CC001A715A794A4099794A40D9794A40032199
:1007DC0049424A405A720023037002B010BD802176
:1007EC00034A09019162E9E7F002002000000020B1
:1007FC00000400505922084B995C98791A7F597162
:10080C001A714240D8794240187A42405140002235
:10081C005972024B1A707047F00200200000002041
:10082C0070B5144B587F5C7901004A1E91411A7ABD
:10083C00CEB262409C796240DC796240FD24624019
:10084C00A43C1D5D8D4202D01E55002806D10A49DC
:10085C00FD2018715A7200230B7070BD5A210020B4
:10086C0058540649013088620349D86B4C69001B07
:10087C00D865EDE7F00200200000002000040050D5
:10088C000C4A10B5136E117F180A90711802000EE5
:10089C00D0711804000E53711C0E58401B021171BC
:1008AC001B0E4140594014724C4054720022024BB2
:1008BC001A7010BDF0020020000000200F4B180031
:1008CC009A7F597F12020A43D97F1D3009041143C4
:1008DC00C27812060A431A665A66FD22197A1A71F0
:1008EC005A794A4099794A40D9794A400321494278
:1008FC004A405A720022024B1A707047F0020020D4
:10090C00000000200C4A10B5536E117F180A90712C
:10091C001802000ED0711804000E53711C0E5840B2
:10092C001B0211711B0E4140594014724C40547201
:10093C000022024B1A7010BDF002002000000020B3
:10094C000F4B18009A7F597F12020A43D97F1D3032
:10095C0009041143C27812060A435A66FD22197A19
:10096C001A715A794A4099794A40D9794A400321F7
:10097C0049424A405A720022024B1A707047C046D4
:10098C00F00200200000002030B50C4D0C496B69C2
:10099C000A7F180A88711802000EC8711804000E1C
:1009AC001C0E58404B711B020A711B0E42405A40E0
:1009BC0000230C7254402B704C7230BD0000002090
:1009CC00F00200200F4B10B51C009A7F597F1202C9
:1009DC000A43D97F1D3409041143E2780A481206F0
:1009EC000A434261FD22197A1A715A794A4099795F
:1009FC004A40D9794A40032149424A405A7200235D
:100A0C00037010BDF002002000000020084A0949C4
:100A1C00107F0B7E10715371434090794340D07915
:100A2C004340107A4340537200230B707047C0460A
:100A3C00F002002000000020094B0A495A7F0A7678
:100A4C00FD22187A1A715A79424098794240D87925
:100A5C0042400320404242405A7200230B707047C0
:100A6C00F0020020000000206822084B995C987965
:100A7C001A7F59711A714240D8794240187A424013
:100A8C00514000225972024B1A707047F00200203C
:100A9C0000000020104B5A7F1000411E8841682135
:100AAC005854002A13D00D4A48399161FD22197A05
:100ABC001A715A794A4099794A40D9794A400321A6
:100ACC0049424A405A720022054B1A707047202145
:100ADC00024A9162EAE7C046F0020020000800508A
:100AEC0000000020012310B50848094A417E947982
:100AFC005940137F517113716340D4796340147A58
:100B0C006340594000235172037010BD0000002057
:100B1C00F002002010B5104B82B05A7F0F485142A2
:100B2C0051414176002A13D102210D4A9161FD22D7
:100B3C00197A1A715A794A4099794A40D9794A40B6
:100B4C00032149424A405A720023037002B010BD7F
:100B5C000221034A9162EAE7F00200200000002023
:100B6C00000400506922084B995C98791A7F5971DE
:100B7C001A714240D8794240187A424051400022C2
:100B8C005972024B1A707047F002002000000020CE
:100B9C0070B5144B587F1C7A01004A1E91415A794A
:100BAC00CEB262409C796240DC796240FD246240A6
:100BBC00943C1D5D8D4202D01E55002806D10A4979
:100BCC00FD2018715A7200230B7070BD6A21002031
:100BDC0058540649083088620349D86BCC69001B0D
:100BEC00D866EDE7F0020020000000200004005061
:100BFC000C4A10B5136F117F180A90711802000E71
:100C0C00D0711804000E53711C0E58401B02117148
:100C1C001B0E4140594014724C4054720022024B3E
:100C2C001A7010BDF0020020000000200F4B1800BD
:100C3C009A7F597F12020A43D97F1D300904114350
:100C4C00C27812060A431A675A67FD22197A1A717A
:100C5C005A794A4099794A40D9794A400321494204
:100C6C004A405A720022024B1A707047F002002060
:100C7C00000000200C4A10B5536F117F180A9071B8
:100C8C001802000ED0711804000E53711C0E58403F
:100C9C001B0211711B0E4140594014724C4054728E
:100CAC000022024B1A7010BDF00200200000002040
:100CBC000F4B18009A7F597F12020A43D97F1D30BF
:100CCC0009041143C27812060A435A67FD22197AA5
:100CDC001A715A794A4099794A40D9794A40032184
:100CEC0049424A405A720022024B1A707047C04661
:100CFC00F00200200000002030B50C4D0C49EB69CF
:100D0C000A7F180A88711802000EC8711804000EA8
:100D1C001C0E58404B711B020A711B0E42405A406C
:100D2C0000230C7254402B704C7230BD000000201C
:100D3C00F00200200F4B10B51C009A7F597F120255
:100D4C000A43D97F1D3409041143E2780A4812067C
:100D5C000A43C261FD22197A1A715A794A4099796B
:100D6C004A40D9794A40032149424A405A720023E9
:100D7C00037010BDF0020020000000202023084A60
:100D8C000849107FCB5C10715371434090794340FC
:100D9C00D0794340107A4340537200230B70704754
:100DAC00F00200200000002020220A4B0A49587F44
:100DBC008854DD32187A1A715A7942409879424037
:100DCC00D87942400320404242405A7200230B70B3
:100DDC007047C046F0020020000000207822084B2B
:100DEC00995C98791A7F59711A714240D8794240AE
:100DFC00187A4240514000225972024B1A707047C7
:100E0C00F002002000000020104B5A7F1000411E01
:100E1C00884178215854002A13D00D4A68399161C1
:100E2C00FD22197A1A715A794A4099794A40D9792E
:100E3C004A40032149424A405A720022054B1A701B
:100E4C0070471021024A9162EAE7C046F002002086
:100E5C000004005000000020212310B509480A4A64
:100E6C00C15C203B94795940137F517113716340DD
:100E7C00D4796340147A6340594000235172037053
:100E8C0010BDC04600000020F002002010B5114B30
:100E9C0082B05A7F2121544254410F484454002AB5
:100EAC0013D10E4A1F399161FD22197A1A715A79A0
:100EBC004A4099794A40D9794A40032149424A40EB
:100ECC005A720023037002B010BD0221034A9162D2
:100EDC00EAE7C046F002002000000020000C0050A1
:100EEC000123084A117A5371137F13714B40917986
:100EFC004B40D1794B4001214B4053720022024BA5
:100F0C001A707047F0020020000000200123084AEC
:100F1C00117A5371137F13714B4091794B40D179F6
:100F2C004B4001214B4053720022024B1A70704708
:100F3C00F0020020000000200123084A117A5371AE
:100F4C00137F13714B4091794B40D1794B40012168
:100F5C004B4053720022024B1A707047F002002073
:100F6C00000000200123084A117A5371137F13717A
:100F7C004B4091794B40D1794B4001214B405372FE
:100F8C000022024B1A707047F00200200000002073
:100F9C000D4BDB7A1B071B0F082B12D80821C91A23
:100FAC00C9B20A4A9079137F517113714340D079B9
:100FBC004340107A4340594051720022044B1A703E
:100FCC0070470421EDE7C046D0110020F00200204C
:100FDC000000002043220D4B9B5C1B071B0F082BB2
:100FEC0012D80821C91AC9B2094A9079137F5171D4
:100FFC0013714340D0794340107A434059405172A9
:10100C000022044B1A7070470421EDE7D011002028
:10101C00F0020020000000207B220D4B9B5C1B0784
:10102C001B0F082B12D80821C91AC9B2094A90798A
:10103C00137F517113714340D0794340107A434070
:10104C00594051720022044B1A7070470421EDE78D
:10105C00D0110020F002002000000020B3220D4B24
:10106C009B5C1B071B0F082B12D80821C91AC9B28D
:10107C00094A9079137F517113714340D0794340E1
:10108C00107A4340594051720022044B1A70704739
:10109C000421EDE7D0110020F00200200000002018
:1010AC0001200022054B197F5871197141409A712A
:1010BC00DA711A725972024B1A707047F0020020E2
:1010CC0000000020104B3D2817D93F210F4A084043
:1010DC00800082589200D3585A1C0DD00F201A0948
:1010EC000240052A0CD8094903409B0092008A183B
:1010FC00C918126C8B6D936170478000C358EBE775
:10110C0000239B61FFDEC04630CB00087CC000088A
:10111C001C4B70B51A78002A0DD01A6C002A0BD013
:10112C003420195C002926D1174DDC6B996B6E6845
:10113C00611AB14214D270BD134801780629FAD154
:10114C00C2311C7A197159791A7061409C796140CD
:10115C00DC79027061403824644261405972EAE7DC
:10116C0080260A49B6018E6101211954297A9C63A3
:10117C00521A1A64DFE700221A548022034B9201A0
:10118C009A62D8E7F0020020000000200004005012
:10119C0049221D4B70B5995C00290DD0196D0029A1
:1011AC000BD04A201A5C002A26D1184DDC6BDA6C65
:1011BC00EE68A21AB24214D270BD14480478062C00
:1011CC00FAD19954C9221C7A1A715A7962409C79C5
:1011DC006240DC79017062403724644262405A728A
:1011EC00EAE780260A4AF600966101221A542A7C04
:1011FC00DC648A1A1A65DFE700221A548022044B39
:10120C00D2009A62D8E7C046F0020020000000200D
:10121C000004005059221B4B70B5995C00290DD06D
:10122C00196E00290BD05A201A5C002A24D1164DB5
:10123C00DC6BDA6D6E69A21AB24214D270BD124820
:10124C000478062CFAD19954CA221C7A1A715A794C
:10125C0062409C796240DC790170624036246442C1
:10126C0062405A72EAE70122084EB2611A542A7E91
:10127C00DC658A1A1A66E1E700221A54034B013224
:10128C009A62DBE7F002002000000020000400500E
:10129C0069221C4B70B5995C00290DD0196F00297F
:1012AC000BD06A201A5C002A26D1174DDC6BDA6E43
:1012BC00EE69A21AB24214D270BD13480478062CFF
:1012CC00FAD19954CB221C7A1A715A7962409C79C2
:1012DC006240DC79017062403524644262405A728B
:1012EC00EAE70826094A966101221A541F32AA5CC1
:1012FC00DC668A1A1A67DFE700221A54034B08329D
:10130C009A62D9E7F002002000000020000400508F
:10131C00FF22032310B514000340DB009C4089011D
:10132C000A40E4439A4000280BDB0C4BC0219C463E
:10133C008008800060448900435823401343435085
:10134C0010BD0F23064918408C46083883089B00B3
:10135C006344D9690C401443DC61F1E700E100E01F
:10136C0000ED00E0002805DB1F2318401E3B8340E6
:10137C00014A13607047C04600E100E0F0B504007C
:10138C0083B0002844D00568EB072ED53823C14A1A
:10139C009168D2680B40102B00D104E1082B00D1CE
:1013AC0005E1802263685202934200D112E1A02130
:1013BC00C9028B4200D1CAE1B649B7480A6802405B
:1013CC000A600A68B54802400A60002B00D005E1AB
:1013DC008020B34B8002DE6F04E0DA6F921B642A2C
:1013EC0000D980E10A680242F7D1AB073CD538231B
:1013FC00A84A91680B40D168102B0CD0002B0FD150
:10140C0013685B0500D411E1E368002B00D00DE1FB
:10141C00012003B0F0BD0D3B0B40022B00D1A0E12D
:10142C00E3689C49002B00D180E10B689D4A802029
:10143C0013402269C00013430B6080230A685B00D1
:10144C0013430B60964BDE6F04E0DA6F921B022A9B
:10145C0000D948E10A680242F7D04A6863699248A9
:10146C001B02024013434B602B0700D580E06B0737
:10147C0041D53823874A91680B40202B00D1BBE023
:10148C0080230021D06B5B058C46184208D1D16BB0
:10149C001943D163D26B13400193019B01239C46EA
:1014AC008026824876000368334200D10EE17C4BE3
:1014BC00A268012A00D1A8E0052A00D1DBE10127AE
:1014CC007448C66DBE43C665C66D0337BE43C6655C
:1014DC00002A00D09DE00226D96F754F04E0DA6F28
:1014EC00521ABA4200D9FEE0C26D1642F7D16346D9
:1014FC00012B00D150E1AD0616D5E3696549002BEF
:10150C0000D102E1802380200A68DB0313430B60C7
:10151C00634B0004DD6F04E0DA6F521B022A00D922
:10152C00E1E00A680242F7D0236A002B1ED0382271
:10153C00584988680240102A00D133E1022B00D1AF
:10154C005EE180200B685B4A800413400B60544BB7
:10155C00DC6F04E0DA6F121B022A00D9C3E00A68C0
:10156C000242F7D1CB68544A1340CB60002050E7BD
:10157C00382348498A681340182B22D0A369002BC2
:10158C0000D1B2E001220B6E022013430B66444BD8
:10159C00DE6F04E0DA6F921B022A00D9A3E00A6E18
:1015AC001042F7D063E7D243920700D0F9E6394BEB
:1015BC001B689B0300D418E76368002B00D014E76A
:1015CC0026E70B6E9B0700D451E7A369002B00D0D4
:1015DC004DE71DE72F490A6813430B608021304B00
:1015EC002C48DE6F890203E0DA6F921B642A7AD8EA
:1015FC0002680A42F8D0F8E6D36D9B0700D47AE76C
:10160C00A368002B00D076E702E7224EF06D024370
:10161C00F2650220D96F1F4E254F03E0DA6F521A84
:10162C00BA4260D8F26D1042F8D060E75168636935
:10163C001D481B0201400B435360164A194913689D
:10164C001E480B4021691E4E0B4313601368FA2190
:10165C009B045B0FD8408900706209F095FA013841
:10166C00C021184AB66A506017480906036A1B0263
:10167C001B0A0B4303620023936007331360032E92
:10168C0000D9C5E6036AB6071B021B0A1E43066295
:10169C00EAE6C04600100240FFFFFEFFFFFFFBFF23
:1016AC00F0020020FFC7FFFFFF80FFFF007000402B
:1016BC0088130000FFFFFFFEFCFFFEEE0024F40089
:1016CC000000002010E000E000ED00E00368334370
:1016DC0003606E4BDF6F0268324200D0E8E6DA6FCF
:1016EC00D21B022AF7D9032093E601220B6E0220AB
:1016FC0093430B66654BDE6F03E0DA6F921B022A95
:10170C00F1D80A6E1042F8D1B1E680200B68604A1D
:10171C00000413400B605D4BDD6F03E0DA6F521B6E
:10172C00022AE0D80A680242F8D1FDE680200B6854
:10173C00584AC00013400B60544BDE6F03E0DA6F65
:10174C00921B022ACFD80A680242F8D18CE680217B
:10175C00514BC90218680143196019680A431A6091
:10176C003CE713685B0503D5E368002B00D14FE61B
:10177C005168636949481B0201400B43FA21484EEA
:10178C005360706A890009F0FFF9802301385B040B
:10179C00984200D33CE663E73F4A4249D36B0B4087
:1017AC00D363A8E6012B00D132E60322C868616A34
:1017BC0002408A4200D02BE67022A16A02408A4283
:1017CC0000D025E6FE21E26AC901014012029142D5
:1017DC0000D01DE6F822216B920302408A4200D011
:1017EC0016E6E022616B120502408A4200D00FE639
:1017FC00A36B400F4007C01A431E9841C0B208E6C5
:10180C0080200B68284A800413400B601F4BDD6F4F
:10181C0004E0DA6F521B022A00D964E70A6802421C
:10182C00F7D1A56A626AC8682A43204D2840024352
:10183C00206B0243606B0243A06B0243E06A000220
:10184C000243CA6080220868520402430A60802264
:10185C00C86852050243CA608021DC6F0E488904B7
:10186C0004E0DA6F121B022A00D93CE702680A4234
:10187C00F7D00020CDE50426074AD06D3043D06563
:10188C00D06D033E3043D065C3E6C046F002002065
:10189C00FFFFBFFFFFFEFFFF00100240FF80FFFFB6
:1018AC0000000020FFFFFFEFFFFFFFFE8C80C11147
:1018BC003823224A10B591680B4205D11368204891
:1018CC009B045B0FD84010BD91681940082914D0B7
:1018DC0091681940102912D091681940202924D000
:1018EC00906818401838431E9841164B40421840D7
:1018FC00FA23DB019C466044E5E71348E3E7D36831
:10190C00D168DB43D4684906490F64040131640E85
:10191C009B070DD00A4809F037F96043074BD9688B
:10192C00490F013109F030F9CDE780200002CAE7F8
:10193C00054809F029F96043F0E7C0460010024061
:10194C000024F4000083FFFF00127A000222F8B595
:10195C0003680500DE681C69224212D0324210D0A6
:10196C00053A1A6104320277021F12689B69D16F23
:10197C00002904D0100080237430D35898470023DA
:10198C002B770423234214D0334212D005222B6828
:10199C0052421A6107322A7799692B1F1B6818006B
:1019AC0084308768002F02D090229B5898470023E0
:1019BC002B770823234214D0334212D009222B68F0
:1019CC0052421A610D322A772A1F1268DB69100005
:1019DC0094308168002902D0A023D3589847002363
:1019EC002B771023234214D0334212D011222B68B0
:1019FC0052421A6119322A77D9692B1F1B681800B9
:101A0C00A4308768002F02D0B0229B58984700233F
:101A1C002B770123234201D0334218D182239B011F
:101A2C001C420CD0330620D44023234201D0334235
:101A3C0026D12023234201D033421CD1F8BDE3052B
:101A4C00F2D53306F0D52B68104A1A61ECE7022266
:101A5C002B6852421A612B1F1B68DA6E002ADDD0EC
:101A6C0018001B6F64309847D8E72B68084A1A6136
:101A7C00E205E9D4D8E721222B6852421A61DDE74E
:101A8C0041222B6852421A61D3E7C046FFFEFFFF8A
:101A9C007FDFFFFFF0B50400C6462169A368056827
:101AAC000B4361692A68C0690B439C4903430A4094
:101ABC00134300B52B606B68994AA1691340E26827
:101ACC00666A13436B60974B9D4200D1FDE0964BC9
:101ADC009D4200D1A0E0236AAA680B4393490A40B7
:101AEC0013430F22AB60EB6A93433343EB62904B8F
:101AFC009D4228D08F4B9D4215D08F4B9D4200D1DB
:101B0C0080E08E4B9D4228D08D4B9D4225D08D4B35
:101B1C009D4222D001208C4BA36600236367A367F0
:101B2C0080BCB846F0BD894B5A6D0C231340082B72
:101B3C0043D03AD8002B10D080231B02984242D0BD
:101B4C00FFF7B6FE1BE0814B5A6D03231340022BAB
:101B5C0033D0032B2BD0012BEED080231B029842C9
:101B6C0000D1C7E0794B7A4A9B687A495B045B0FDA
:101B7C009B00D21893691F22486A1340D840002852
:101B8C0011D0734B76009B19198F08F0FDFF676815
:101B9C007B08C018390008F0F7FF02006E4B103AB2
:101BAC009A42B7D8E8600020B5E70C2BB2D180235D
:101BBC001B0298420BD01800E3E780231B029842CB
:101BCC0073D06648DDE7FFF773FE0028EBD0604B5F
:101BDC0076009B19198F08F0D7FF676840007B08C7
:101BEC00C018390008F0D0FF02005B4B103A9A4243
:101BFC0000D98FE75A4B03400007400F0343EB60BB
:101C0C00002088E7514B5A6D30231340202BD4D041
:101C1C0090D9302BCBD07DE7AB68444A13400F22D0
:101C2C000B43C021AB60EB6A890093433343EB62F7
:101C3C00464BF2325B6DFF320B40934258D09342CD
:101C4C0066D8002B33D0FFF733FE0700002FAAD045
:101C5C003F4B76009B191B8F38001900984608F0F3
:101C6C0093FF666873009B19834200D952E73303D4
:101C7C00834200D24EE7424600233800002109F08F
:101C8C002DF80B020021070E02023B43700880184E
:101C9C0059413200002309F021F8324BC218324B63
:101CAC009A4200D936E7E8607DE72C488FE7274B4E
:101CBC00274A9B6827495B045B0F9B00D2189369EA
:101CCC001F224F6A1340DF40C0E7AB68174A13402E
:101CDC000F220B43AB60EB6AC0219343802233434A
:101CEC00EB621A4B09015B6D12010B409342A6D1BA
:101CFC001A4FADE7154B164A9B6816495B045B0FF0
:101D0C009B00D21893691F22486A1340D8405CE7A5
:101D1C008B4200D0FEE680273F0299E7F369FFCFA4
:101D2C00FFCFFFFF0080004000840040FFF4FF1154
:101D3C00003801400044004000480040004C004086
:101D4C0000500040003C0140010001000010024026
:101D5C00FCC0000800000020EFFF00000024F4008D
:101D6C00F0FF000000FDFFFFFFFC0F00836A30B5A1
:101D7C001A0706D50168284C4A682240846B224316
:101D8C004A60DA0706D50168244C4A682240C46AC6
:101D9C0022434A609A0706D50168214C4A682240C2
:101DAC00046B22434A605A0706D501681D4C4A68E9
:101DBC002240446B22434A60DA0606D501681A4C6D
:101DCC008A682240C46B22438A609A0606D5016851
:101DDC00164C8A682240046C22438A605A060AD543
:101DEC000168134D4A68446C2A4022434A608022A1
:101DFC005203944209D01B0606D502680D4953685C
:101E0C000B40C16C0B43536030BD4A680A4C2240F6
:101E1C00846C22434A60EEE7FF7FFFFFFFFFFDFF6C
:101E2C00FFFFFEFFFFFFFBFFFFEFFFFFFFDFFFFFEB
:101E3C00FFFFEFFFFFFFF7FFFFFF9FFFF0B59023C2
:101E4C00CE4600224746010080B5C250A348C36F5E
:101E5C0099460B681A68120713D41A68520700D5F2
:101E6C006EE0202388228B5004328B5000230020FC
:101E7C00CB660B6784230022CA54C0BCB946B0465B
:101E8C00F0BD08229446802280258026120104276A
:101E9C009046AD03B604DA692A42DED14C46C26FD5
:101EAC00121BB2423BD21A681742F4D06446DA696C
:101EBC00144200D0AEE04446DA692242EBD01C62F8
:101ECC00EFF31084012282F310880868844D0368B4
:101EDC002B40036084F31088EFF3108082F310889A
:101EEC000A68804C93682340936080F31088CB6E13
:101EFC00012B0AD1EFF3108083F3108810240A68A9
:101F0C001368A343136080F3108820228C23902045
:101F1C00CA500023CB664B670A5064328B54EFF3E4
:101F2C001080012383F3108880240A681368A3436C
:101F3C00136080F31088882320220320CA5099E76D
:101F4C000822944680228025802612010427904680
:101F5C00ED03B604DA692A4200D082E74C46C26F20
:101F6C00121BB2423BD21A681742F3D06446DA69AC
:101F7C00144200D080E04446DA692242EAD01C6266
:101F8C00EFF31084012282F310880868544D036823
:101F9C002B40036084F31088EFF3108082F31088D9
:101FAC000A68504C93682340936080F31088CB6E82
:101FBC00012B0AD1EFF3108083F3108810240A68E8
:101FCC001368A343136080F3108820228C23902085
:101FDC00CA500023CB664B670A5064328B54EFF324
:101FEC001084012282F3108808683D4D03682B4051
:101FFC00036084F31088EFF3108482F31088086870
:10200C0083689343836084F310888C231F320320EE
:10201C00CA502FE71C62EFF31084012282F3108860
:10202C0008682F4D03682B40036084F31088EFF38E
:10203C00108082F310880A682A4C936823409360BE
:10204C0080F31088CB6E012B0AD1EFF3108083F351
:10205C00108810240A681368A343136080F3108857
:10206C008C2320220820CA5000237032CB664B6789
:10207C0088500C3A8B5452E71C62EFF31084012207
:10208C0082F310880868164D03682B40036084F3B4
:10209C001088EFF3108082F310880A68114C936853
:1020AC002340936080F31088CB6E012B0AD1EFF3A1
:1020BC00108083F3108810240A681368A3431360FC
:1020CC0080F310888C2320220820CA500023703201
:1020DC00CB664B6788500C3A8B5480E7F00200209B
:1020EC00DFFEFFFFFEFFFFEF70B5041E27D0882335
:1020FC00C358002B29D0882324222568E2502B6852
:10210C00233A93432B60A36A002B1AD12000FFF7CC
:10211C00C1FC012813D06B680D4A20001340222209
:10212C006B60AB689343AB60AB681A3A1343AB601C
:10213C002B68073A13432B60FFF780FE70BD01201C
:10214C00FCE72000FFF712FEE0E784228354D2E77D
:10215C00FFB7FFFF8823C35830B5212B00D030BD0B
:10216C003533C25A002A17D1EFF31084013282F3AF
:10217C001088802501680B68AB430B6084F31088D2
:10218C00EFF3108182F31088026840201368034338
:10219C00136081F31088E2E7026D01681478013254
:1021AC008C620265C25A013A92B2C252D7E7C0465B
:1021BC008823C35830B5212B00D030BD3533C25ADB
:1021CC00002A17D1EFF31084013282F31088802596
:1021DC0001680B68AB430B6084F31088EFF310813C
:1021EC0082F310880268402013680343136081F364
:1021FC001088E2E7016D04680A880231D205D20D1D
:10220C00A2620165C25A013A92B2C252D5E7C046E7
:10221C008823C35870B5212B00D070BD4933C35AE5
:10222C00002BFAD05624802510E00268D1690D42AB
:10223C0008D0016D0E78013196620165025B013A9E
:10224C0092B20253013B9BB2002BE6D0025B002AF8
:10225C00EBD1EFF31084013282F310880168094D41
:10226C008B682B408B6084F31088EFF3108182F322
:10227C0010880268402013680343136081F31088B0
:10228C00CBE7C046FFFF7FFF8823C35870B5212BD7
:10229C0000D070BD4933C35A002BFAD05625802686
:1022AC0012E00168CA6916420AD0046D2288023411
:1022BC00D205D20D8A620465425B013A92B2425356
:1022CC00013B9BB2002BE4D0425B002AE9D1EFF337
:1022DC001084013282F310880168094D8B682B4001
:1022EC008B6084F31088EFF3108182F310880268FE
:1022FC00402013680343136081F31088C9E7C0467C
:10230C00FFFF7FFF10B5EFF3108C012383F31088D0
:10231C000168234C0A6822400A608CF31088EFF3A2
:10232C00108C83F3108801688A689A438A608CF356
:10233C0010888C222021815000221A4942670267A2
:10234C0002688A4210D018498A420DD05268120293
:10235C000AD5EFF3108183F310880268134C1368CD
:10236C002340136081F31088C36E012B12D100221D
:10237C00C266EFF3108483F31088016810320B6887
:10238C0093430B6084F310880368D9690A4200D028
:10239C001A6210BD98230438C3589847F9E7C04611
:1023AC00DFFEFFFF0080004000840040FFFFFFFBCA
:1023BC008C23C25810B50368222A04D008219A69CC
:1023CC000A439A6110BD60215B6A415A826D0B40D1
:1023DC0013705E22836D01338365835A013B9BB27C
:1023EC008352835A002BEDD1FFF78CFFEAE7C046EE
:1023FC008C23C25810B50368222A04D008219A698C
:10240C000A439A6110BD60215A6A415A836D0A4091
:10241C001A805E2202338365835A013B9BB283523E
:10242C00835A002BEED1FFF76DFFEBE7184A030040
:10243C00904222D08022D20590421CD0154A904264
:10244C001DD0154A0320934216D0144A934218D03B
:10245C00134A023093420FD0124A013093420BD0F0
:10246C00114A934211D0114A93420CD0104A0330B6
:10247C00934201D0FEE7012070470020FCE70220C8
:10248C00FAE70420F8E70820F6E70720F4E7C0464F
:10249C00002C0140000400400008004000100040E7
:1024AC000014004000200040004001400044014066
:1024BC0000480140F0B5CE46474680B587B0431C76
:1024CC001BD00F22764B024092009B189C6DFF2371
:1024DC0003400B2B00D1A4E010D8092B20D00A2BE1
:1024EC0013D1C02302009B011A409A420DD1102532
:1024FC006C4A13682B43136007E0FEE70C2B04D1E6
:10250C001025684A1368AB43136003061B0F052B99
:10251C0000D9C2E0644A9B00D358644A556B9F466D
:10252C00C02302009B011A409A42EED108255D4A55
:10253C0013682B431360E8E710231D435563526B5C
:10254C0013400193019B5A4B250065436F007E1984
:10255C00B446F643B04666469A6832439A60072200
:10256C000A40022A68D055DC002A60D040461A681E
:10257C0002402A431A600A0700D47AE05A682243C0
:10258C005A608906890F01293ED0022936D041466E
:10259C00DA680A40DA6007B0C0BCB946B046F0BD94
:1025AC0008231D435563526B13400293029B414B0E
:1025BC00CAE704231D435563526B13400393039BDB
:1025CC003D4BC1E702231D435563526B13400493EB
:1025DC00049B3A4BB8E701231D435563526B1340E0
:1025EC000593059BA023DB05AEE720231D43556314
:1025FC00526B13400093009B314BA5E74146DA68C0
:10260C000A403A43DA60C6E74146DA680A402A4390
:10261C00DA60C0E7032A30D160461A6810431860AC
:10262C00AFE708251F4A1368AB4313606DE74046BC
:10263C001A6802401A60A4E74A04520E7F2A10D08E
:10264C0000071BD5586A8446200A404340430601C4
:10265C00361A81463000664686434846504330431E
:10266C00586240461A6802403A431A600A0700D57D
:10267C0084E75A68A2435A6083E7FEE72E006E4354
:10268C00B446186A360181466046361A4846B0434D
:10269C006646724302431A62E3E700239B68FFDE3F
:1026AC007CC0000800000140E4BF0008001002409C
:1026BC0000100050000C00500008005000040050A6
:1026CC0000140050431C03D105E0984205D00C3196
:1026DC000B685A1CF9D1002070474868FCE7C046CB
:1026EC000368444A8AB093424FD08022D205934269
:1026FC000DD0414A934221D10221404BDA6B0A435F
:10270C00DA63DB6B0B400293029B0AB0704701202B
:10271C003A4AD16B0143D163D26B02400192019AC8
:10272C00374A9342F1D18021344BC9021A6C0A43C7
:10273C001A641B6C0B400993099BE6E7314A9342E0
:10274C0019D0314A93420CD0304A934235D12021D2
:10275C002A4BDA6B0A43DA63DB6B0B400593059B60
:10276C00D3E71021254BDA6B0A43DA63DB6B0B40A2
:10277C000493049BC9E70421204BDA6B0A43DA6308
:10278C00DB6B0B400393039BBFE780201B4A0001CC
:10279C00116C01431164126C02400092009A1C4AA5
:1027AC009342BDD18021154B89021A6C0A431A64DD
:1027BC001B6C0B400893089BA7E7164A93420AD15F
:1027CC0080210E4B09021A6C0A431A641B6C0B40D5
:1027DC000693069B99E7104A9342E0D18021074B60
:1027EC0049021A6C0A431A641B6C0B400793079B33
:1027FC008BE7C046002C0140000400400010024052
:10280C000048014000080040001000400014004047
:10281C000044014000200040004001400300421CE5
:10282C0035D01C4A90422BD00BD81B4A90422BD04F
:10283C0017D91A4A904212D0194A1220934225D124
:10284C007047184A90421DD015D8174A904204D0B0
:10285C00164A14209342F3D0FEE70D20F0E7112026
:10286C00EEE780220F20D2059342E9D0104A0130C6
:10287C009342E5D0F0E70F4A16209342E0D0EBE705
:10288C001320DDE71520DBE71020D9E7E4E70E2065
:10289C004042D5E7002000400008004000100040F6
:1028AC000014004000440140002C01400040014055
:1028BC0000040040004801400300421C35D01C4A73
:1028CC0090422BD00BD81B4A90422BD017D91A4AC6
:1028DC00904212D0194A1220934225D17047184ABF
:1028EC0090421DD015D8174A904204D0164A142095
:1028FC009342F3D0FEE70E20F0E71120EEE78022A2
:10290C000F20D2059342E9D0104A01309342E5D012
:10291C00F0E70F4A16209342E0D0EBE71320DDE7F7
:10292C001520DBE71020D9E7E4E70E204042D5E77D
:10293C00002000400008004000100040001400403F
:10294C0000440140002C01400040014000040040C4
:10295C0000480140F0B54546DE4657464E46E0B5C8
:10296C00A7B0059330AB049204CB05001B78019102
:10297C00079332AB1B780692089333AB1B78099301
:10298C00002800D1A3E0A023C058431C00D1CEE006
:10299C000022B34B04E0DA680C33511C00D1C6E0C2
:1029AC009042F8D15B68A422AC58621C00D196E02E
:1029BC000121AC4A04E0D1680C324E1C00D18EE0EF
:1029CC008C42F8D152689146A822AE58721C00D1A4
:1029DC008CE00121A44A04E0D1680C324F1C00D1D8
:1029EC0084E08E42F8D152689246AC22AF587A1CE1
:1029FC0000D182E000219C469C4A04E0D1680C3254
:102A0C004B1C00D1AEE08F42F8D15268634693461E
:102A1C00421C00D176E001219C46924A04E0D16828
:102A2C000C324B1C00D1A1E08842F8D163465268AD
:102A3C000292621C00D155E200219C46884A04E0B7
:102A4C00D1680C324B1C00D173E08C42F8D1634638
:102A5C0052680392002B00D18CE04A46002A00D128
:102A6C0099E0721C01D100F0CEFC5246002A2ED007
:102A7C007A1C01D100F092FD5A46002A27D09945C4
:102A8C0000D151E2002B00D14EE24A46002A00D17F
:102A9C0092E0029A03998A4201D100F02EFD029A2B
:102AAC00002A01D100F028FD039A002A01D100F080
:102ABC0077FC00222A605246002A00D140E2D3451E
:102ACC0001D100F076FCD04675E100232B6000208C
:102ADC0027B0F0BCBB46B246A946A046F0BD0022CA
:102AEC009146A822AE58721C00D072E70022924682
:102AFC00AC22AF587A1C00D07CE700229346421CD3
:102B0C0000D088E700220292621C95D1002BDED007
:102B1C00721C00D0ECE17A1C01D100F00FFE5A4679
:102B2C00002AD4D0002203929945AED1ECE10023C7
:102B3C0039E76346002B00D108E24A46002AC6D08A
:102B4C00721C01D100F04CFC5246002ABFD000226E
:102B5C0003927A1C90D1994594D14A462A6000225E
:102B6C000392E6E100226346934651E70022634656
:102B7C0002925EE7029A002AA9D04A46002A0AD09D
:102B8C00721C01D100F0DDFC5246002A9FD07A1C49
:102B9C0000D071E773E7039A002A98D0721C01D118
:102BAC0000F063FC5246002A91D07A1C00D063E7F7
:102BBC00002B01D12B606CE798462B609A4500D115
:102BCC00BBE15246002A00D1F2E05A46002A01D15C
:102BDC0000F048FC2A60D846254A90455CD0254A2E
:102BEC00904500D1CDE1244A904500D19BE2234A87
:102BFC00904501D100F013FC214A904501D100F021
:102C0C0057FC204A904500D1A6E31F4A904501D1BC
:102C1C0000F0DCFC1D4A904500D058E780218C4622
:102C2C001B4AD26A11431A4AD162D16A6246914355
:102C3C00174AD162D16B62461143154AD163614682
:102C4C00D26B0A401592159A40220B92114A79398F
:102C5C000C921D32FF320A92153A0D923EE0C0469C
:102C6C00B0C9000854C8000870C70008B0C60008F6
:102C7C00003801400044004000480040004C004037
:102C8C0000500040003C01400080004000840040A7
:102C9C000010024000FFFFFFCB490A6B8021C901E5
:102CAC000A43C9490A630A6BC8490A40C6490A6300
:102CBC000A6C8021C9010A43C3490A640A6C802149
:102CCC00C9010A400E920E9A8022D2050B92C04A7C
:102CDC0000210C921B220A9200220D92B122A954BF
:102CEC000A99013AA954002B3AD0431C0BD000236B
:102CFC00B84A03E0D3680C32591C2FD09842F9D152
:102D0C009168FFF7D7FB4B46002B0FD0631C0DD0FF
:102D1C000122B14B04E0DA680C33511C00D125E2DE
:102D2C009442F8D120009968FFF7C4FB0024534665
:102D3C00002B47D0731C0CD00122A84B03E0DA689F
:102D4C000C33511C0BD09642F9D130009968FFF727
:102D5C00B1FBC0268021B600490036E0FEE7FEE755
:102D6C00029B002BE2D0431C0BD001239A4A03E0B8
:102D7C00D3680C32591C1AD09842F9D19168FFF7DC
:102D8C0099FB039B002B0FD0631C0DD00023914AA1
:102D9C0004E0D3680C32591C00D1C8E29C42F8D133
:102DAC0020009168FFF786FB80242402BFE7FEE732
:102DBC00C34500D10FE75A46002A00D085E64246AB
:102DCC002A6009E780260021B6005B46002B0FD055
:102DDC007B1C0CD00022824B03E0DA680C33511CB4
:102DEC007FD09742F9D138009968FFF763FB310027
:102DFC000D9B7C4A9B002E1D9E5043466B60019B95
:102E0C00E961AB60049BEC63EB60069B2B61059B5B
:102E1C006B610C23AB6100232B620833EB62079BC5
:102E2C00002B00D17CE10A23EB6280235B026B63F5
:102E3C000B220A230899002904D080239B022B63C0
:102E4C001300EA62099A002A05D004221343EB62AC
:102E5C008023DB02AB630023634AC02194466B6280
:102E6C000A9B89009B089B0063445A580C980240AB
:102E7C000B9802435A505D4B984500D1C0E05C4B17
:102E8C00984500D1BCE04B46002B00D16FE18C2360
:102E9C00EB58002B00D151E38C2324226C68EA50B0
:102EAC002368233A93432360EB6A002B00D04FE254
:102EBC003000FEF7EFFD012800D108E663684D4AAB
:102ECC00300013402A226360A3689343A3602368F5
:102EDC00293A13432360FEF7B1FF43425841C0B275
:102EEC00F6E5FEE7002B00D1C9E2721C00D11FE20F
:102EFC005246002A00D1EAE5002203927A1C00D047
:102F0C00BAE5994500D0C0E54A462A6011E07A1C22
:102F1C0000D1CAE35A46002A00D1D8E50022039218
:102F2C004A46002A00D1C1E24A462A60002A00D152
:102F3C00AFE5C846CA4500D043E6D34500D03AE7D2
:102F4C005A462A60002A00D045E6C0E5029A002ABB
:102F5C0000D1BCE54A46002A00D1B8E5721C00D06D
:102F6C00F2E57A1C00D1B4E35A46002A00D1AEE552
:102F7C00994500D1F1E5002B00D182E300220392A8
:102F8C0087E51149CA6A802189020A430E49CA623F
:102F9C00CA6A19490A400C49CA62CA6B8021890263
:102FAC000A430949CA63CA6B802189020A400F92FD
:102FBC000F9A40220B92114A01210C921D32FF32C2
:102FCC000A921B3A0D9289E600100240FFBFFFFFE8
:102FDC00FFFFFF00B0C9000854C8000870C7000804
:102FEC00B0C600087003002000E100E00080004043
:102FFC0000840040FFB7FFFFFFFFFDFF00FFFFFF56
:10300C00882396210198EA5C8901884200D0B9E0B6
:10301C00012A00D19AE20122EA54EFF3108082F3E4
:10302C001088022469680A6822430A6080F31088B9
:10303C000022EA544B46002B00D0B9E0039B002B36
:10304C0000D0B5E03000FFF74FF8002866D03C22E6
:10305C00002117A808F08DFD8023D84A5B00116869
:10306C000B4380211360D64BC900DA6B0A43DA6339
:10307C00DA6B0A4001211692169ADA6D0A43DA6568
:10308C00DA6D92070CD41820DA6D8243DA650423CA
:10309C0017A819911793FEF771F9002800D045E194
:1030AC00C74B2C68DA6D920700D4B6E0C54A94423F
:1030BC0000D13AE3C44A944204D1C022596D920023
:1030CC000A435A654B46002B00D105E38C23EB5881
:1030DC00002B00D105E38C2324226F68EA503B6857
:1030EC00233A93433B60EB6A002B00D0FCE23000A8
:1030FC00FEF7D0FC012800D18FE07B68B34A30008A
:10310C0013402A227B60BB689343BB603B68293A1F
:10311C0013433B60FEF792FE00287DD10120D7E4DB
:10312C000922082386E6A649CA6A8021C9020A43F5
:10313C00A349CA62CA6AA6490A40A149CA62CA6BB3
:10314C008021C9020A439E49CA63CA6B8021C90205
:10315C000A401092109A8022D2010B929D4A0221B1
:10316C000C921D220A921B3A0D92B7E5FEE7039BC7
:10317C00002B00D08BE63000FEF7B6FF43425841DF
:10318C00C0B2A5E4012A00D1F8E10122EA54EFF320
:10319C00108082F31088022469680A68A2430A60CE
:1031AC0080F310880022EA544B46002B00D1E8E152
:1031BC006B68EA6A98468C23EB58002B00D1DAE155
:1031CC008C232421E95043461B6823398B43414609
:1031DC000B60002A00D0CAE13000FEF75BFC01282E
:1031EC0014D04346794A5B68300013404246536022
:1031FC0093682A2293434246936013680122134337
:10320C0042461360FEF71AFE002887D09623019AD7
:10321C009B019A4200D11AE72C68694B1A68520537
:10322C003AD5684A944200D130E2674A944206D1BA
:10323C00596D694A1140802292000A435A654B46E7
:10324C00002B00D1EBE18C23EB58002B00D125E2B5
:10325C008C2324226F68EA503B68233A93433B60EB
:10326C00EB6A002B00D01CE23000FEF713FC0128A7
:10327C0012D07B68554A300013402A227B60BB6811
:10328C009343BB603B68293A13433B60FEF7D6FD82
:10329C00002800D142E72C684A4B9C4200D1B8E18F
:1032AC00494B9C4204D1464A4B49536D0B405365E4
:1032BC004B46002B00D176E18C23EB58002B00D130
:1032CC00C9E18C2324226C68EA502368233A934387
:1032DC002360EB6A002B00D0B9E13000FEF7DAFB7B
:1032EC00012811D06368394A300013402A226360E8
:1032FC00A3689343A3602368293A13432360FEF722
:10330C009DFD002800D109E72B682E4A934200D17D
:10331C00ADE12D4A934200D0B5E529492E4B4A6DBB
:10332C001A4080235B0013434B65ACE5FEE7FEE7D8
:10333C007A1C00D1EAE05A46002A01D1FFF7C7FBFC
:10334C0000220392994501D0FFF79FFBFFF705FC84
:10335C003000FEF70BFDABE51949CA6A80218900E4
:10336C000A431749CA62CA6A1C490A401449CA620C
:10337C00CA6B802189000A431149CA63CA6B802138
:10338C0089000A401392139A8022D2010B92114A9F
:10339C00FC390C921D220A92183AFF390D929DE4C9
:1033AC00029A2A60924500D18CE190460022039249
:1033BC0007E45A46D8462A600EE4C0460070004026
:1033CC00001002400080004000840040FFB7FFFF67
:1033DC00FFFFFBFFFF00FFFFFFFCFFFFFFFDFFFFF9
:1033EC007A1C00D0C0E500220392994503D0002B33
:1033FC0001D0FFF74EFB4A462A60CA4500D18EE148
:10340C00C846FFF7DEFB7A1CEFD05A46002A01D1E2
:10341C00FFF75DFBE14501D0FFF73BFB74E5D549B8
:10342C00CA6A802109030A43D249CA62CA6AD249CC
:10343C000A40D049CA62CA6B802109030A43CD49AC
:10344C00CA63CA6B802109030A401192119A802227
:10345C00D2010B92C94A03210C921D220A921A3AEC
:10346C000D923BE42A60FFF732FB7A1C00D1F5E0A9
:10347C005A46002A01D0FFF79BFBFFF728FB029A64
:10348C00002A01D1FFF723FB721C00D13FE5524605
:10349C00002A01D1FFF71BFB002203927A1C01D0FA
:1034AC00FFF7EAFA4A46002A00D03DE52A6065E5B6
:1034BC00B049CA6A802149000A43AE49CA62CA6A45
:1034CC00AF490A40AB49CA62CA6B802149000A4322
:1034DC00A849CA63CA6B802149000A401292129A09
:1034EC008022D2010B92A54AFC390C921D220A9221
:1034FC00193A0D92FFF7F2FB039A90462A60924517
:10350C0011D0002A0FD00392FFF75BFB4A46994576
:10351C0000D1D4E0002A00D1F9E0029A002A00D0B0
:10352C003EE790462A6042460392D34500D107E518
:10353C005246002A00D103E5D0463CE48822AB5425
:10354C00AAE47A1C01D0FFF797FA54E74B46002BFC
:10355C0000D173E58C23EA58002A00D1EBE0242239
:10356C00EA5043461B68233A9343424613603000AB
:10357C00FEF7FCFB30E688216B5421E64B46002B12
:10358C00E8D1039B002B00D012E63000FEF7ACFD17
:10359C00002800D040E60120FFF79AFAE14501D05F
:1035AC00FFF770FAB0E4039B002B00D084E63000E8
:1035BC00FEF79AFD002800D1B0E52B68714A9342C2
:1035CC0055D0714A934200D0D5E5A6E68021490337
:1035DC008C46684AD26A1143664AD162D16A6B4AF8
:1035EC001140644AD162D16B62461143614AD16386
:1035FC006146D26B0A401492149A8022D2010B922B
:10360C005E4A06210C921D220A92173A0D92FFF780
:10361C0065FB584A5E49536D0B40536548E6039B66
:10362C00002B00D00FE63000FEF75EFD002800D125
:10363C0074E52B68534A934200D1C4E0524A93423A
:10364C00B5D14C4A5349536D0B405365AFE730002D
:10365C00FEF78CFB41E68822AB5432E61A1E9846E4
:10366C0046D02A60C24501D0FFF7ABFA5DE741496D
:10367C00474B4A6D1A408023DB0013434B65FFF721
:10368C0002FC4A462A600022039252E4596D404AD9
:10369C001140802212010A435A65D0E58822AB54AE
:1036AC00D6E53000FEF762FBDEE54A46002A01D083
:1036BC00FFF754FA2A6000220392FFF7F0F92A6010
:1036CC00CA4527D1D34551D00022D0460392FFF7EB
:1036DC0072FB002203928EE6039B002B00D0F5E4D4
:1036EC0053E78822AB54F6E43000FEF73FFBFEE4D0
:1036FC000399029A91424FD0002A01D0FFF7D9F9D1
:10370C000A0029608A454BD09046FFF75AFA2B6085
:10371C009A4524D0002298460392FFF752FAD345DB
:10372C0000D10DE4D046FFF746FBC022596D1201C3
:10373C000A435A65C6E488216A5410E799453DD07E
:10374C004A46002A2ED000222A605246002A01D076
:10375C00D345B9D1002203920292FFF7F1FB00226C
:10376C00D0460392D34501D0FFF725FB00220392EC
:10377C00FFF7E6FB00100240FFFFF7FFFF00FFFF23
:10378C00FFFEFFFF0080004000840040FFFFEFFFC2
:10379C00FFF3FFFFFFFCFFFF039A2A609245B3D1B2
:1037AC00D046C0E698462B6003929A4501D0FFF7AD
:1037BC0008FAD345CED0D046FFF7FDFA00214A4691
:1037CC00C84603914DE7034A0349536D0B405365BB
:1037DC00EDE6C04600100240FFF3FFFF802182237C
:1037EC007F20054AD35A525A9B1A7F33DA17520E4E
:1037FC009B181840801A70470810002010B582B032
:10380C006B460268D9710733546819000122A0472E
:10381C0002B010BDC02230B50D4B83B0995A01AA2D
:10382C0089B21180C4216846595A063089B2018088
:10383C00C2215D5A1488A54206D9008812885B5AA9
:10384C008018C01A03B030BD10885B5AC01AF9E753
:10385C00640C0020C02210B50F4B82B09A5A01A9FB
:10386C0092B20A80C42268469A5A063092B20280FA
:10387C00C2229C5A0088844201D300209852C22252
:10388C00985A0988884203D09A5A985C02B010BDA5
:10389C0001204042FAE7C046640C002030B57F207E
:1038AC008025822406494B5B0A5B80339B1ADA170E
:1038BC00520E9B1803409B1A002BF4DC30BDC04603
:1038CC0008100020B523B0229B00C35892009B0027
:1038DC00C31810B59C58002C16D0083282580720FB
:1038EC00084081000918C90052187132FF32116862
:1038FC0083229200A150A118083AA058C0329B58BC
:10390C00DB689847002010BD0320FCE7B5239B0023
:10391C00C35870B59B00C018B0239B00C458002C32
:10392C0011D00433C358002B0BD08025AD00605D43
:10393C00FF2806D0054A9B682100A25C9847FF230C
:10394C006355002070BD0320FCE7C0460102000057
:10395C002C23F0B584462A48C55CC68D2B00AE429C
:10396C0040D9040029002A002C3402E0964244D9A4
:10397C00217864188A18617892B20529F6D1A17859
:10398C008329F3D101002F002A002C3102E0B2422E
:10399C0031D20F78C919BA184F7892B2052FF6D1D7
:1039AC008F78012FF3D102002C3202E0B3421ED2E9
:1039BC0015785219EB1855789BB2052DF6D19578E0
:1039CC00822DF3D1002C01D01023A371002903D038
:1039DC0040230B7100234B71002A03D04023137139
:1039EC0000235371432362462C301380F0BD002218
:1039FC00002CE9D1EAE70021D5E70024C2E7C04654
:103A0C000000002084462B4870230100F0B5703173
:103A1C00C55C4E882B002C002A00AE4203D83BE03C
:103A2C00964244D90C780919A2184C7892B2052CFC
:103A3C00F6D18C78832CF3D104002F002A0070343B
:103A4C0002E0B24231D22778E419BA18677892B200
:103A5C00052FF6D1A778012FF3D10200703202E0C6
:103A6C00B3421ED215785219EB1855789BB2052D1E
:103A7C00F6D19578822DF3D1002901D010238B71CA
:103A8C00002C03D00023237102336371002A03D06E
:103A9C000023137102335371432362467030138039
:103AAC00F0BD00220029E9D1EAE70024D5E7002186
:103ABC00C2E7C046000000203423F0B584462A48F3
:103ACC00C55CC68E2B00AE4240D9040029002A00EA
:103ADC00343402E0964244D9217864188A1861780B
:103AEC0092B20529F6D1A1788329F3D101002F00D8
:103AFC002A00343102E0B24231D20F78C919BA1817
:103B0C004F7892B2052FF6D18F78012FF3D10200A6
:103B1C00343202E0B3421ED215785219EB185578A4
:103B2C009BB2052DF6D19578822DF3D1002C01D0C6
:103B3C001023A371002903D040230B7100234B7178
:103B4C00002A03D040231371002353714323624690
:103B5C0034301380F0BD0022002CE9D1EAE70021BB
:103B6C00D5E70024C2E7C046800000200A2303806A
:103B7C0000487047F800002000218222C22010B5B6
:103B8C000124244B82B09952023A9952224B403272
:103B9C0019529952C4315A5220498C70195A68469C
:103BAC0089B2C1809C5AC18806308C4220D3995A64
:103BBC007F292AD99A5A802A24D002880021402AA7
:103BCC0007D9C022C424985A80B218539952995AD2
:103BDC005918B523124A9B00D358B0339B009B58FD
:103BEC00002B02D0812292009950002002B010BD0F
:103BFC00995A0488403108000021A042E9D2995A10
:103C0C005918E6E70288002AD7D0C022995A5918C9
:103C1C00DFE7C04608100020640C002000010020E3
:103C2C002C0D002000207047212827D0222815D0E9
:103C3C00202811D14B780A781B0213438A78174835
:103C4C0012041A43CB781B06134343600B7903729F
:103C5C004B7943728B798372002070474B8801211A
:103C6C0020200F4A19401154115C002901D0002169
:103C7C00516228219B07DB0F5354EDE7074A536829
:103C8C00180A0B704870180C1B0E8870CB70137AC6
:103C9C000B71537A4B71937A8B71DDE70001002025
:103CAC0070030020122301480B8070470C01002088
:103CBC00042301480B80704720010020402310B5DD
:103CCC000B80002813D1D02313489B00038047227C
:103CDC00022300241149C2545A1CD2B28218013159
:103CEC0014700A780233DBB2002AF4D110BDD02351
:103CFC0009489B0003804722022300240849C25430
:103D0C005A1CD2B28218013114700A780233DBB219
:103D1C00002AF4D1EAE7C0466406002054CC00081F
:103D2C0074CC0008262310B509480B80094B53228C
:103D3C000380002402230849C2545A1CD2B28218B0
:103D4C00013114700A780233DBB2002AF4D110BDB1
:103D5C00640600202603000094CC00081A2330B51A
:103D6C005B4A0B805B4B12681B689B18002B02D1C3
:103D7C005948243030BD190F0C00584A30341268A1
:103D8C00092900D9A1E05448010024318C70002489
:103D9C00CC701901090F0C003034092900D991E0BD
:103DAC00010024310C7100244C711902090F0C0014
:103DBC003034092900D982E0010024318C710024AF
:103DCC00CC711903090F0C003034092974D8010087
:103DDC0024310C7200244C721904090F0C0030347D
:103DEC00092966D8010024318C720024CC72190583
:103DFC00090F0C003034092958D8010024310C73F8
:103E0C0000244C731906090F0C00303409294AD8C8
:103E1C00010024318C730024CC730F210D001D4044
:103E2C002C0029003734092D01D830310C00030047
:103E3C000021243359741C74130F19003031092BD1
:103E4C002ED80300243399740021D97413011B0F4D
:103E5C0019003031092B20D80300243319750021A7
:103E6C00597513021B0F19003031092B12D803009E
:103E7C00243399750021D97513031B0F1A0037329F
:103E8C00092B01D830331A00030024331A76002290
:103E9C005A766EE737331900E9E737331900DBE759
:103EAC0037331900CDE737310C00B1E737310C004F
:103EBC00A3E737310C0095E737310C0087E7373132
:103ECC000C0079E737310C006AE737310C005AE700
:103EDC009875FF1F9075FF1F000100209475FF1F40
:103EEC00382310B50B80002813D1CE2313489B0028
:103EFC0003804722022300241149C2545A1CD2B217
:103F0C008218013114700A780233DBB2002AF4D122
:103F1C0010BDCE2309489B000380472202230024B6
:103F2C000749C2545A1CD2B28218013114700A7853
:103F3C000233DBB2002AF4D1EAE7C0466406002063
:103F4C00A8CC00083E2310B50B80002812D1134BCF
:103F5C00134847220380002402231249C2545A1CDE
:103F6C00D2B28218013114700A780233DBB2002A03
:103F7C00F4D110BD094B0A484722038000240223C8
:103F8C000849C2545A1CD2B28218013114700A78F2
:103F9C000233DBB2002AF4D1EBE7C0463E0300004B
:103FAC0064060020C4CC000800487047640500205B
:103FBC0070B5654C90B01822002102A807F0D9FD0D
:103FCC002268624B624D1A4080239B00134323608E
:103FDC006B6A60495800C018400006F0D5FD80227D
:103FEC006369D2000130134205D063690138134272
:103FFC0001D00028F9D122230193DE3304938023CE
:10400C00DB030893002305930B9308330C93802355
:10401C009B020D9380239B040E9380230224402249
:10402C009B0501A8069209940A940F93FDF7A6F933
:10403C00002800D0FEE7062247490B681A425FD0E1
:10404C00464AE0234649DB01886803438B608B6852
:10405C00444803408B600B689B0144D507208B6858
:10406C00414C8343053803438B60D66F363003E0F5
:10407C00D36F9B1BA34235D88B680340102BF7D111
:10408C00072035490B680340022B4CD8344C374A77
:10409C00A3681340A360FDF70BFCA368344A1B050F
:1040AC001B0F9B00D218136D1F221340D840FA210E
:1040BC006862890006F068FD802301385B04984231
:1040CC0010D2AB6A2B4D2C496860C0200A6A0006DE
:1040DC001202120A02430A620022AA6007322A6004
:1040EC00032B01D9FEE7FDE70A6A9B071202120AAD
:1040FC0013430B62A36D214A1340A36510B070BD2E
:10410C00072207200B6893432343144A0B60D66F96
:10411C00154C0B680340022B00D192E7D36F9B1B0D
:10412C00A342F6D9DEE70B6807248343022003433E
:10413C000B60D66F0C480B682340022BA6D0D36FB4
:10414C009B1B8342F7D9CDE700700040FFF9FFFFBE
:10415C000000002040420F0000200240F00200202E
:10416C0000100240FFF0FFFF88130000FF8FFFFFDD
:10417C00FCC0000810E000E000ED00E0FFCFFFFF06
:10418C00AA23A8225B005200C35A825A3F20403314
:10419C009B1A18407047C046AA235B00C25A043BC6
:1041AC00C35A9A4204D0A42252008258D05C704761
:1041BC0001204042FBE7C046A923AB225B00520022
:1041CC00C35C805AC0B2834202D2C01A0138704715
:1041DC00C01A3F30FBE7C04610B582B06B46026890
:1041EC00D9710733546819000122A04702B010BDE1
:1041FC00F0B5C646040088461700002600B5002A14
:10420C0014D00C4DEB6FE36005E0E268EB6F9B1A8A
:10421C00A26893420AD2236820005B699847002861
:10422C00F3DB434698550136B742EBD1300080BCE6
:10423C00B846F0BDF0020020F8B54746CE46040063
:10424C0080B5884691461F000026002B16D00E4DD7
:10425C00EB6FE36005E0E268EB6F9B1AA268934298
:10426C000CD2236820005B6998470028F3DB80455B
:10427C0004D04B4698550136B742E9D13000C0BC4A
:10428C00B946B046F8BDC046F0020020034AD16FD3
:10429C00D36F5B1A092BFBD97047C046F002002084
:1042AC00F0B54F464646D6462923C0B5DC4E82B003
:1042BC00F75C002F05D002B0E0BCBA46B146A84668
:1042CC00F0BDAE23AD22D74D9B00EF500C33EF5019
:1042DC000C33EF50D44B92009A46D44B2F70AB500A
:1042EC00A72301229B00EA54D14BD24A99469B6DDD
:1042FC0013404A469365FFF7C9FF4B469A6D8023DE
:10430C001B0213434A4693650423CB4C23710223AF
:10431C00E371FF33FF33A360DC33E550143BEC5007
:10432C00C64B2260A781E35CDAB2002B00D142E1DC
:10433C000322C24BC249E2542268136C0B40136433
:10434C002179002900D1CFE080235B00A3820023D8
:10435C00E3756362A362E362012900D195E1022057
:10436C00FF30A087C2382354E364236563650229B8
:10437C004ED0812725307F002752033023546367AA
:10438C00A367E367032943D004272530FF3727525F
:10439C00033023540D302350043023500430235069
:1043AC00042935D060308446674650382752033094
:1043BC0023540D302350043023500430235005294E
:1043CC0026D006271030FF372752033023540D30E8
:1043DC0023500430235004302350062918D067464C
:1043EC001230E05308270E30235004302350FF378F
:1043FC000430E355235007290AD0103027523020BF
:10440C00FF3023540D3023500430235004302350FC
:10441C00AA2000234000235258200127FF302354A8
:10442C000D302350043023500430235010302752C9
:10443C008020FF3023540D3023500430235004309F
:10444C002350022950D0D220022740002752A82006
:10445C00FF3023540D3023500430235004302350AC
:10446C00032941D0103001372752D020FF3023547C
:10447C000D3023500430235004302350042933D002
:10448C00103001372752F820FF3023540D302350C1
:10449C000430235004302350052925D01030013727
:1044AC002752684823540D302350043023500430D5
:1044BC002350062918D01030013727526248235454
:1044CC000D302350043023500430235007290BD0D7
:1044DC009B210720890060525C4963540D31635065
:1044EC00043163500431635001211164136C53483F
:1044FC008B431364136C8B40CB40136400235364C5
:10450C0063742154217B012900D1B1E0AD23202219
:10451C005B00B021E2520023490063540139FF399A
:10452C00A354618365324A49FF32A1500121043200
:10453C00A1541F3A2031FF3AFF31A1520632A35445
:10454C0008312232A1520632A3546A465380524695
:10455C00AE2360329B00EA508C235246D358002B7A
:10456C0005D06A46901C9847B4239B00E850B622AD
:10457C009200AB58A5200133AB50B5239B00EB58F0
:10458C00344AB0339B00EB185A60B2239B00EA58B4
:10459C008000135C012B0AD0002413682E495C6444
:1045AC00196480219D6D09022943996514542923AE
:1045BC000122F2547FE6A5239B00E254274A6D3377
:1045CC005168FF330B435360254B984606E0434636
:1045DC009968FDF76FFF0C239C46E044434618682E
:1045EC00431CF4D180211F4B8901DA6B09300A433B
:1045FC00DA63DB6B0B4001930121019BFCF788FE16
:10460C008022194B52001A60E37A012B00D08FE6FE
:10461C001649703A88580F3303438B5088E6C046CE
:10462C00700300202C0D0020000100204001002010
:10463C00005C0040FF7FFFFF680700209502000030
:10464C007F40FFFF1F020000470200006F020000C6
:10465C00E000A0009801002080BF00000070004026
:10466C008CC100080010024000E100E0001802407C
:10467C00B5208000215008382354536D1943022370
:10468C005165516D0B43536540E7AA2149006352B4
:10469C005821FF3121E7C046B22301229B00C358A9
:1046AC00A52010B59A75FF329A8280001A5C012AF7
:1046BC000AD01C68054922680A4010214A40044966
:1046CC000A43226000221A5410BDC046BF8FFF0758
:1046DC008080000030B5002852D09C22454B83507E
:1046EC00B023C356002B4CDB7D3A1A400123934078
:1046FC008022414CA350BFF34F8FBFF36F8F3132E9
:10470C00825C3E4B9200D358C222845A3A3A9A5851
:10471C00A4B2202A2AD1983282581219002A25D004
:10472C0089B2002922D080249D686401A54235D02D
:10473C001A65542299520232995200213A329950F8
:10474C00083A213199508022596E920591423ED0FF
:10475C002B4A9A67EFF31081012282F31088802490
:10476C001A6813682343136081F31088B023C3566F
:10477C00002B05DB1F221A40012393401E4A1360B5
:10478C0030BDB122825C1D4B9200D358C222845A98
:10479C003A3A9A58A4B2202ABDD0F1E71C69002CF1
:1047AC00C6D10134250015402242DFD11A655422AE
:1047BC0099520232995221213A329D50083A99501D
:1047CC008022596E9205914211D00E4AC1E70E4AD1
:1047DC009A67EFF31081012282F310881A68802304
:1047EC0094681B042343936081F31088BEE7074A47
:1047FC00EEE7C0461D48000800E100E07003002011
:10480C0061210008BD2100081D2200089522000826
:10481C00C22170B50300425AC4203F241858121804
:10482C0022405A52BE225D5A9A5A0020AA4200D106
:10483C0070BD5D5A4032521B585AD117890E52180E
:10484C0014404022611A121A914200D91100C4225C
:10485C0018009950FFF73EFF01204042E8E7C046A0
:10486C00002330B5574AC3660368934212D0564AA8
:10487C0093420FD05B681B020CD5EFF3108401231D
:10488C0083F3108880230268DB0415682B431360C4
:10489C0084F3108801235C22816583520232835297
:1048AC0000234367802382685B019A4200D178E041
:1048BC00002A34D103695A425341DB017F33602211
:1048CC00835290230022C250043B2232C250EFF399
:1048DC00108C012181F31088026893680B4393605C
:1048EC008CF310888022416E836804699205914292
:1048FC0031D08022520193421CD0344B4367002CA0
:10490C001CD0EFF31081012383F31088026820334D
:10491C001068FF330343136081F3108830BD80218E
:10492C00002349058A42CAD103695A4253419B016B
:10493C003F33C4E7002C3AD1254B4367EFF310818A
:10494C00012383F31088026820201368034313604B
:10495C0081F31088E2E76822825A012AC9D88022A2
:10496C005201934226D01B4B4367002C0BD0EFF324
:10497C001081012383F310880268FF3314682343EA
:10498C00136081F31088EFF31081012383F31088F7
:10499C00802302685B0590680343936081F3108861
:1049AC00BCE703695A4253411B02FF3387E7074BAD
:1049BC004367A6E7002C02D1074B4367E3E7054B9F
:1049CC004367D4E70080004000840040BD2300080A
:1049DC00FD230008594A00086D4D000801220368A8
:1049EC0010B5D9690A4203D10222D9690A4210D002
:1049FC001A62B122011F8A5C134B9200D3588C218E
:104A0C0088229A585B581A4322231340222B09D12F
:104A1C0010BD0422D9690A42EAD10822D9690A4296
:104A2C00E7D0E5E74358202BF2D1010080238268C0
:104A3C00AE315B019A4204D10369002B01D1CB0743
:104A4C00E6D4FFF70DFFE3E770030020F0B5454611
:104A5C00DE4657464E4604008C22E0B5036883B010
:104A6C00D96918689D68A258222A0AD008219A6927
:104A7C000A439A6103B0F0BCBB46B246A946A046B5
:104A8C00F0BD4632A25A002A02D15E23E35AF1E766
:104A9C00890600D431E101222A4090466022A25CB2
:104AAC005E2501920722914619329246C00509D51E
:104ABC00E5E09823201FC358984753463B4200D14A
:104ACC001BE123685B6A0199A26D0B4013704A4687
:104ADC00A36D0133A365635B013B9BB263532368F6
:104AEC00DF693A421BD002223A4200D1EAE0414649
:104AFC0000290ED0902004211A6222580A43225019
:104B0C00394206D0042202211A628C32A3580B437C
:104B1C00A35090239B46E358002B00D0E6E0635B48
:104B2C009AB2002BC9D1EFF3108C012181F31088BC
:104B3C002068844E0368334003608CF31088EFF3D5
:104B4C00108C81F3108820687F4E8368334083601B
:104B5C008CF310888C235046E050626722672368E0
:104B6C007A4A934210D07A4A93420DD05B681B026A
:104B7C000AD5EFF3108081F3108822687549136809
:104B8C000B40136080F31088E36E012B91D100224F
:104B9C00E266EFF3108083F31088216810320B6803
:104BAC0093430B6080F310882368D9690A4284D040
:104BBC001A6282E7414600290ED0902004211A6225
:104BCC0022580A432250394206D0042202211A628A
:104BDC008C32A3580B43A35090239B46E358002BD5
:104BEC007DD1635B9AB2002B45D1EFF3108C012180
:104BFC0081F310882068534E0368334003608CF3B4
:104C0C001088EFF3108C81F3108820684E4E836867
:104C1C00334083608CF310888C235046E0506267DD
:104C2C0022672368494A934210D0494A93420DD0D7
:104C3C005B681B020AD5EFF3108081F310882268A1
:104C4C00444913680B40136080F31088E36E012B0A
:104C5C0040D10022E266EFF3108083F310882168C4
:104C6C0010320B6893430B6080F310882368D9696A
:104C7C000A4200D01A6253463B423ED023685B6A1C
:104C8C000199A26D0B4013704A46A36D0133A365C5
:104C9C00635B013B9BB263532368DF693A42A0D04C
:104CAC0001223A4204D090201A6221580A43225021
:104CBC0002223A4200D07DE77A078DD54246002A7F
:104CCC008AD082E77A0700D423E74246002A00D133
:104CDC001FE717E79823201FC3589847CBE72000FE
:104CEC00FFF77CFE00235A46A3507AE72000FFF71B
:104CFC0075FE00235A46A35011E75E23E35A9AB27D
:104D0C00002B00D1B6E66823E35A934200D8B1E6F3
:104D1C00EFF31080012282F3108821680E4D8B680E
:104D2C002B408B6080F310880C4B6367EFF3108182
:104D3C0082F310882020226813680343136081F3E8
:104D4C00108897E6FFFEFFFFFEFFFFEF008000409C
:104D5C0000840040FFFFFFFBFFFFFFEFBD230008B7
:104D6C00F0B54546DE4657464E4604008C22E0B56B
:104D7C00036883B0D96918689D68A258222A0AD0A2
:104D8C0008219A690A439A6103B0F0BCBB46B2464B
:104D9C00A946A046F0BD4632A25A002A02D15E2393
:104DAC00E35AF1E7890600D42DE16022A25A019260
:104DBC0001222A4090460722914619325E259246DE
:104DCC00C00509D5E3E09823201FC35898475346E4
:104DDC003B4200D117E12368596A0198A26D01404A
:104DEC0011800232A265625B013A92B262534A466A
:104DFC00DF693A421BD002223A4200D1E8E0414638
:104E0C0000290ED0902004211A6222580A43225005
:104E1C00394206D0042202211A628C32A3580B4369
:104E2C00A35090239B46E358002B00D0E4E0635B37
:104E3C009AB2002BCBD1EFF3108C012181F31088A7
:104E4C002068834E0368334003608CF31088EFF3C3
:104E5C00108C81F3108820687E4E83683340836009
:104E6C008CF310888C235046E050626722672368CD
:104E7C00794A934210D0794A93420DD05B681B0259
:104E8C000AD5EFF3108081F31088226874491368F7
:104E9C000B40136080F31088E36E012B93D100223A
:104EAC00E266EFF3108083F31088216810320B68F0
:104EBC0093430B6080F310882368D9690A4286D02B
:104ECC001A6284E7414600290ED0902004211A6210
:104EDC0022580A432250394206D0042202211A6277
:104EEC008C32A3580B43A35090239B46E358002BC2
:104EFC007BD1635B9AB2002B45D1EFF3108C01216F
:104F0C0081F310882068524E0368334003608CF3A1
:104F1C001088EFF3108C81F3108820684D4E836855
:104F2C00334083608CF310888C235046E0506267CA
:104F3C0022672368484A934210D0484A93420DD0C6
:104F4C005B681B020AD5EFF3108081F3108822688E
:104F5C00434913680B40136080F31088E36E012BF8
:104F6C003ED10022E266EFF3108083F310882168B3
:104F7C0010320B6893430B6080F310882368D96957
:104F8C000A4200D01A6253463B423CD02368596A0D
:104F9C000198A26D014011800232A265625B013A58
:104FAC0092B262534A46DF693A42A2D001223A4297
:104FBC0004D090201A6221580A43225002223A420D
:104FCC0000D07FE77A078FD54246002A8CD084E741
:104FDC007A0700D425E74246002A00D121E719E7D9
:104FEC009823201FC3589847CDE72000FFF7F6FC05
:104FFC0000235A46A3507CE72000FFF7EFFC002368
:10500C005A46A35013E75E23E35A9AB2002B00D101
:10501C00BAE66823E35A934200D8B5E6EFF3108062
:10502C00012282F3108821680E4D8B682B408B6017
:10503C0080F310880C4B6367EFF3108182F31088B8
:10504C002020226813680343136081F310889BE6C9
:10505C00FFFEFFFFFEFFFFEF0080004000840040DA
:10506C00FFFFFFFBFFFFFFEFFD23000800235E2285
:10507C00806A10B58352083A83520368553AD9694D
:10508C000A4203D10222D9690A4210D01A62B12213
:10509C00011F8A5C134B9200D3588C2188229A589A
:1050AC005B581A4322231340222B09D110BD042232
:1050BC00D9690A42EAD10822D9690A42E7D0E5E760
:1050CC004358202BF2D1010080238268AE315B0162
:1050DC009A4204D10369002B01D1CB07E6D4FFF728
:1050EC00BFFBE3E77003002070B5041E2CD0B12287
:1050FC00825C174B9200D0588C218823C25843589D
:10510C001A4322231340222B1ED0B223E55C4358B2
:10511C00202B0BD1210080238268B2315B019A4293
:10512C0013D10369002B10D1CB070ED5C0213F231F
:10513C00625A01321340BC22A25A934204D0B420CA
:10514C00625A20588554635270BDFFF789FBEDE716
:10515C00700300208C23C35870B5202B4CD18022B7
:10516C0083685201934248D10469002C01D1CA07CB
:10517C0042D400250268654EC566B24202D0644E28
:10518C00B24243D101235C228165835202328352A5
:10519C004567002C5DD15F4A6023C2520022303338
:1051AC00C250043B2232C250EFF3108C012181F328
:1051BC001088026893680B4393608CF310888022EC
:1051CC00416E836804699205914268D08022520135
:1051DC00934200D18AE0504B4367002C52D0EFF33E
:1051EC001081012383F31088026820331068FF3389
:1051FC000343136081F3108870BD00240268434D93
:10520C00C466AA4227D0424DAA4224D05268120248
:10521C000DD5EFF31084012383F3108880230268EB
:10522C00DB0415682B43136084F310888368012218
:10523C0081655C2142520231425200224267802237
:10524C005201934257D0002B0ED103697F22002BC1
:10525C00A2D1FF22A0E7816501225C2142520231DA
:10526C0042524467002BF0D08021002249058B422A
:10527C0000D091E7026953425A4192013F328BE7C9
:10528C00264B4367EFF31081012383F310880268E8
:10529C00202013680343136081F31088ACE7682265
:1052AC00825A012A00D991E780225201934224D0DC
:1052BC001B4B4367002C0BD0EFF31081012383F3BE
:1052CC0010880268FF3314682343136081F310883D
:1052DC00EFF31081012383F31088802302685B05B0
:1052EC0090680343936081F3108885E7002CC7D046
:1052FC00094B436773E704694BE7002C02D0084B5A
:10530C004367D9E7074B4367E2E7C046008000409C
:10531C0000840040FF010000BD230008FD230008AD
:10532C00594A00086D4D0008F0B5D6464F46464622
:10533C000268C04DD3690400C0B5106891682B4257
:10534C0027D120251D4206D08026760505400E402B
:10535C00354300D0FCE0E56E012D00D1C6E0802580
:10536C006D032B4200D0B7E080221A4206D0802574
:10537C002D04024029400A4300D0F0E040221A429A
:10538C0002D0024200D013E1E0BCBA46B146A846B6
:10539C00F0BD0E00A84D2E40294200D0D1E0A74D03
:1053AC002842D8D0DD0700D4E4E0C50500D4DAE00B
:1053BC000125AC4615628F35A846674665593D43B5
:1053CC004746E55102251D4200D1CEE0CF0700D45F
:1053DC00D0E0902704261562E5593543E5511E426D
:1053EC0000D1E2E00425902602271562A5593D4321
:1053FC00A5511D0700D5C5E080252D012B4207D0F6
:10540C00460105D5902620271562A5593D43A55187
:10541C0090256559002DB7D020251D4206D080233C
:10542C005B0505400B401D4300D0B2E090264025A3
:10543C00A15993681D4028230B401D4300D1F4E073
:10544C00EFF31080012282F3108821687C4D0B68E9
:10545C002B400B6080F31088EFF3108182F31088DF
:10546C002268784893680340936081F31088E36E58
:10547C00012B0AD1EFF3108183F3108810202268DE
:10548C0013688343136081F310888C232022E2502D
:10549C000023E3666367236820329B681A4200D1BD
:1054AC007FE0EFF31080012585F3108821688B686D
:1054BC0093438B6080F310888023E058002870D0D1
:1054CC00614B83632523C35C022B00D185E004234D
:1054DC00C363FFF7CBFD57E74E0200D444E721002E
:1054EC0020001562AE31FFF735FE4DE710261E4247
:1054FC0000D134E7064200D131E74023190016628F
:10550C0092681140134200D1A2E080202258116809
:10551C004A6892B2002A00D136E75C27E75B9742D3
:10552C0000D831E75E27E2532022170009680F40AC
:10553C00BA460A4200D1BFE0022323675C33E35A28
:10554C0022E7DD0700D43DE7C50500D43AE72FE795
:10555C00636F002B00D117E72000984714E7A36F67
:10556C00002BF9D110E79D0704D45D0702D5CD07B8
:10557C0000D537E71D0700D43EE72025054035430D
:10558C0000D139E7082790261762A5593D43A5514C
:10559C0032E7636F002B00D148E720009847226860
:1055AC0044E72000FFF71AFAEEE61D07EAD423E7DA
:1055BC00EFF31080012383F3108821680B68934369
:1055CC000B6080F310888823203AE2500023201FC0
:1055DC00A3679C33C3589847D6E60E211C24036856
:1055EC001A688A431A601A681849AA431A60826CAE
:1055FC0013680B401360436C026C23409D40C36CDA
:10560C005560026D5A60436D002B05D01A680A4034
:10561C001A60836DC26D5A6025230122C254002288
:10562C00013BC254FFF722FDAEE62000FFF7D6F98E
:10563C00A551A9E60F08000001000010200100048C
:10564C00DFFEFFFFFEFFFFEF79500008FFFEFFFFBC
:10565C005E22A35AA25A9BB2002A00D194E65C2285
:10566C00A25A9A4200D18FE6EFF3108085F310888E
:10567C002268464F13683B40136080F31088EFF3A9
:10568C00108085F310882268414F93683B409360EB
:10569C0080F310888C232022E250E1666167EFF3DF
:1056AC00108185F3108822681368B343136081F36B
:1056BC0010880223236767E6EFF3108985F31088BF
:1056CC002168344F88460968BC46394047463960E2
:1056DC0089F31088EFF3108985F3108821688846C8
:1056EC0047468968A943B96089F31088EFF310899C
:1056FC0085F31088216888468968994343469960E8
:10570C0089F310888C23E2505346E366EFF3108143
:10571C0085F3108822681368B343136081F31088F3
:10572C002358002B00D107E725229A5C022A05D0CA
:10573C0004225146DA6320329954FDE60E20664667
:10574C001A6811688143986C1160016831400160DE
:10575C001C201168A94311605A6C196C02409540C9
:10576C00DA6C4D60196D51605A6D002A06D01168C3
:10577C000848014011609A6DD96D516025220121B4
:10578C0099540021013A9954D6E6C046DFFEFFFF3A
:10579C00FEFFFFEFFFFEFFFFB2239B00C35801216A
:1057AC001A005532FF3210B59170AA220021A520A3
:1057BC005200995280001A5C012A0BD01C680649D1
:1057CC0022680A40802149015140044A0A43226060
:1057DC0000221A5410BDC0468FBFFF078080000006
:1057EC00037C002B00D17047054BAB22DB6FA92348
:1057FC005B00C15A5200835A9942FCD1F3E7C04670
:10580C00F00200209C23F0B5C6465B00C358040090
:10581C0000B5013312D0AA23A8215B004900E25A3B
:10582C00635A9A4256D0A4225200A258D05C3F220E
:10583C0001331340635280BCB846F0BD0368274A5D
:10584C00DB68934244D1037C002B36D15E23FF33BB
:10585C00E25C002ADFD10121E15423003933FF330C
:10586C001B680133D7D120004630FF3000781C4B29
:10587C008000C35884201D5C012DCCD024268825A3
:10588C0019545E51EFF3108C81F310881F687C3D26
:10589C003E68AE433E608CF31088EFF3108781F3C3
:1058AC0010881E68083D31682943316087F31088E1
:1058BC002021843559511A54ADE70A4BAB22DB6FCA
:1058CC00A9235B00C15A5200A35A9942FCD1BDE7EF
:1058DC009847BBE701204042ADE7C046ED570008B2
:1058EC0070030020F0020020F0B5DE4657464E460D
:1058FC004546E121B02306220400E0B549025B00D5
:10590C0085B0C150023BC254E37C00220393A37CBC
:10591C0094300293637C019300230093FDF71AF8F3
:10592C00AE235B00E054002806D105B0F0BCBB46AA
:10593C00B246A946A046F0BD243BE358013334D00F
:10594C0020003E4A4630FF3003788C259B00D1580E
:10595C008823CB5849590B4322210B408B42E4D06E
:10596C002300250036492D33FF33196000234535BC
:10597C00FF35EB56002B0BDB1F210B401E399940DA
:10598C000B0080212F4E7350BFF34F8FBFF36F8FDF
:10599C002100037847319B00D058FF31FFF7DAFB29
:1059AC0000202856FBF7DEFCBFE7237C002B3AD106
:1059BC005E232000FF33E15C4630204AFF30002993
:1059CC00C2D101260578E6548423AD0055599B4677
:1059DC00EF5CB742B8D02427EE540433EF50EFF30A
:1059EC00108986F310882F68B8463F68BC460C2790
:1059FC00BA46674653469F4343461F6089F3108857
:105A0C00EFF3108886F310882B6803369C461B68CE
:105A1C001E4363461E6088F3108888232026EE50B0
:105A2C005B46E95490E7084BAB22DB6FA9235B0084
:105A3C00E15A5200A35A9942FCD1B9E770030020F5
:105A4C00F550000800E100E0F002002030B5324BC8
:105A5C0083B09A78002A02D0002003B030BDC22156
:105A6C0068462E4A0630515A89B20180C021555AD7
:105A7C000488A5422AD2545A05884034AC42EBD251
:105A8C00515A521801249C70B52325499B00CB58C0
:105A9C00B0339B005B58002B16D0812080001A502D
:105AAC00B2239B00CB58097C002929D174381A5099
:105ABC00CA22703052009850043299501C3A9C52B1
:105ACC001868991804F016FA0120C6E7545A7F2C6E
